:020000040800F2
:10000000A01D002051010008E73100087D2A0008EA
:10001000E5310008610600083D5D000800000000B1
:10002000000000000000000000000000B1410008D6
:100030009306000800000000C1360008E3410008F4
:100040006B0100086B0100086B0100086B010008E0
:100050006B0100086B0100086B0100086B010008D0
:100060006B0100086B0100086B0100086B010008C0
:100070006B0100086B0100086B0100086B010008B0
:100080006B0100086B0100086B0100086B010008A0
:100090006D5A00086B0100086B0100086B01000835
:1000A0006B0100086B010008D14300086B010008D8
:1000B0006B0100086B0100086B0100086B01000870
:1000C0006B0100086B0100086B0100086B01000860
:1000D0006B0100086B0100086B0100086B01000850
:1000E0006B0100086B0100086B0100086B01000840
:1000F0006B0100086B0100086B0100086B01000830
:100100006B0100086B0100086B0100086B0100081F
:100110006B0100086B0100086B0100086B0100080F
:100120006B0100086B0100086B0100086B010008FF
:100130006B0100086B0100086B010008DFF80CD0B0
:1001400000F046F8004800475D720008A01D00203E
:100150000648804706480047FEE7FEE7FEE7FEE761
:10016000FEE7FEE7FEE7FEE7FEE7FEE76D43000879
:100170003D01000810B540EA01040346A40703D07E
:1001800009E010C9121F10C3042AFAD203E011F8C3
:10019000014B03F8014B521EF9D210BDD2B201E05F
:1001A00000F8012B491EFBD270470022F6E710B57C
:1001B00013460A4604461946FFF7F0FF204610BDD5
:1001C000421C10F8011B0029FBD1801A7047000067
:1001D000064C074D06E0E06840F0010394E8070094
:1001E00098471034AC42F6D3FFF7ACFF14790008FF
:1001F0003479000870B58C1810F8015B15F007030E
:1002000001D110F8013B2A1106D110F8012B03E0AF
:1002100010F8016B01F8016B5B1EF9D12B0705D4B7
:100220000023521E0DD401F8013BFAE710F8013B00
:10023000CB1A921C03E013F8015B01F8015B521E1C
:10024000F9D5A142D8D3002070BD000070B5044696
:100250000068816811F0010F28D18168144A1142A9
:1002600015D18168D5432940491C816000F00AFE00
:10027000064616E0816811F0010F03D1816829401C
:10028000491C816000F0FEFD801B022809D9606DC9
:1002900040F010006065A06D40F00100A0650120F5
:1002A00070BD20680168C943C907E3D1002070BD53
:1002B0003F00008000B54FF0B04089B0816841F444
:1002C0000041816005F020FC1249002002F0ACFAE8
:1002D00004F02EFA104A0021082005F043FC0F48D4
:1002E00006900F48079006A90E4807F03BF90E4804
:1002F0000090A0F586700190A0F5C960029040F2D0
:100300003C500390684604F039FA04F00FFA09B043
:1003100000BD0000540E002035760008B80900200A
:100320002D0300082F030008D00B0020704710B5E4
:1003300004F06CFA00F006F80021BDE8104001203E
:1003400005F0EABB30B58FB0302224496846FFF78C
:1003500011FF23480C9023480D900CA9224806F069
:1003600089FD0121022005F0D7FB204A002104204D
:1003700005F0F8FB684603F056FE00F0D9F803F0EC
:10038000BBFE1B4C00254FF6FF7084F8905024F8FC
:10039000260F184A2946012005F0E4FB062005F047
:1003A00055FF02F049FF12490022134B91311046CC
:1003B00002F00EFA0E490022104B9231104602F064
:1003C00007FA0B48E570001FA57080210180A0216D
:1003D0004180012000F026F80FB030BD50770008B2
:1003E000E8020020C1040008D5040008917000084C
:1003F000F8010020010400081D040008E141000884
:1004000010B5054C94F89000052804D005F0C7FD00
:10041000002084F8900010BDF80100200021012088
:1004200005F034BCF0B587B0054601280BD04FF479
:10043000C8674FF47A661E4C94F8910002F0C2FA35
:10044000022D05D00CE01A48001F07884688F2E705
:1004500094F89000012801D0022801D105F09FFDF9
:1004600084F8905094F828200020114903922931F3
:10047000CDE9041008220690CDE900020D49029151
:1004800003463246394605F014FD0B490E2005F0AF
:10049000A6FD002809D1012D07D194F8910007B0DD
:1004A0000649BDE8F04002F04DBA07B0F0BD0000CB
:1004B000F8010020267700083600002046E0010001
:1004C00020B1012805D1072005F05CBB072005F00D
:1004D0003BBB704710B504464068083003F03EFE51
:1004E00000B10120207010BD704700000D4810B50C
:1004F0000068411C0FD00B49040A091D0A680A490B
:10050000130A08704C70000C8870CA700B71180ABE
:100510004871084610BD002002F076FE0028F9D18F
:10052000024810BD8075FF1F3000002020770008B2
:1005300070B58CB000250A9506F030FDFFF7D6FFA8
:10054000044602460621002005F0CDFE3D496079B3
:1005500008AA087220794872E0788872A078C87278
:1005600060780873207848734EF66E5009903648CC
:100570000621006808902E2005F0B5FE334A1021B0
:10058000182005F0B0FE314A10211032082005F085
:10059000AAFE1821012005F07EFE05F000FE07AA44
:1005A00006A9CDE90012012029A405AB07220021EC
:1005B00005F004FC2046FFF703FEC3B200940022BE
:1005C000BDF81810BDF8140005F00AFE0AA8009046
:1005D00002230022BDF81C10BDF8140005F000FE37
:1005E00002221146002006F0A1FC1B4C01263046D9
:1005F000267005F0AFFC6670E5700820607510206D
:10060000A07526751548A061A670002021180871F4
:10061000401CC0B21028F9D3A069217DA27DCDE98C
:10062000021001920495607D00906178A07800230B
:10063000012205F005FCA078002801D005F09EFB02
:100640000CB070BD360000208075FF1F2E770008AB
:1006500053544D3332574200F801002007B20100D5
:10066000FEE7704710B50949074C096830B1012011
:100670002070002907D0BDE81040084709B10020CC
:1006800088470020207010BDFC0C002028010020AD
:100690007047704770477047002200F001B80000B3
:1006A00030B50E4B054601205C7A002C14D1587AE7
:1006B0001C54587A03EB800045605D7A03F1080012
:1006C0002A54587A421C5A72303008703A204870C6
:1006D0002F208870CC70002030BD0000C018002092
:1006E0002DE9F84F00270446009790F85000DFF8F6
:1006F00088930D46B846012807D0012684F850603B
:10070000206802F0E4F918B172E10220BDE8F88F28
:10071000D5E900210C23206803EA91131844036BE8
:1007200001F01F014FF01F0C0CFA01FCC2F38462B0
:1007300023EA0C038A4013430363206802F0C7F9DD
:100740008246206802F0BFF95AEA00001DD1AA686B
:100750002968206802F0BFF920686969C268C2F39D
:10076000C102520091402A69042A0FD000EB820096
:100770002B68026EDFF804C303F0F84302EA0C02B0
:100780000B431A4342F00041016672E0002102F07F
:1007900094F9400320684FF0000172D002F08DF907
:1007A00090FAA0F0B0FA80F1286842036ED090FA77
:1007B000A0F0B0FA80F0814204D1002211462068F6
:1007C00002F098F90121206802F077F940032068CF
:1007D0004FF001015DD002F070F990FAA0F0B0FA8C
:1007E00080F12868420359D090FAA0F0B0FA80F066
:1007F000814204D100220121206802F07BF902210C
:10080000206802F05AF9400320684FF0020148D0F6
:1008100002F053F990FAA0F0B0FA80F12868420390
:1008200044D090FAA0F0B0FA80F0814204D10022C6
:100830000221206802F05EF90321206802F03DF9F0
:10084000400320684FF0030133D002F036F990FAEC
:10085000A0F0B0FA80F1286842032FD090FAA0F0FF
:10086000B0FA80F0814204D100220321206802F016
:1008700041F92068816811F0010F22D0BEE000E04C
:1008800004E002F01AF9C0F384618DE7C0F38460DC
:1008900091E702F012F9C0F38461A2E7C0F384602B
:1008A000A6E702F00AF9C0F38461B7E7C0F38460F9
:1008B000BBE702F002F9C0F38461CCE7C0F38460C7
:1008C000D0E72A7B296850F8B03FC1F3120C23EA25
:1008D0000C0302F0180C6A4A22FA0CF20A40134385
:1008E0000360E968494576D1286841031BD090FA36
:1008F000A0F1B1FA81F1491C01F01F0109294FEA69
:10090000403131D8002911D090FAA0F1B1FA81F12B
:1009100001F1010101F01F0106FA01F609D100BF42
:10092000C0F3846109E0C0F38461E4E7C0F384614B
:10093000EEE790FAA0F1B1FA81F101F1010101F0C5
:100940001F0146EA816102D1C0F3846003E090FA9E
:10095000A0F0B0FA80F000F1010000F01F0000EB01
:10096000400041EA005132E000290ED090FAA0F197
:10097000B1FA81F101F1010101F01F0106FA01F65E
:1009800006D100BFC0F3846106E0C0F38461F1E7E3
:1009900090FAA0F1B1FA81F101F1010101F01F011A
:1009A00046EA816102D1C0F3846003E090FAA0F0CE
:1009B000B0FA80F000F1010000F01F00314A00EBB6
:1009C000400002EB005041EA000141F00071AA68CA
:1009D000206802F080F82C482A6802420ED02B488A
:1009E00081682B4B01F0E0719D6815F0010F09D073
:1009F000606D40F0200060654FF0010784F8508082
:100A0000384683E6234DAA4219D10D0217D4226835
:100A10009A42F3D1826841F4000122F0E0720A4365
:100A200082601D481D490068B0FBF1F000EB4000FA
:100A3000800000E0401E00900028FBD1DEE7184D4A
:100A4000AA4207D1CD0105D422689A42D6D141F0FD
:100A500080710AE06FF00045EA42CFD14A02CDD45E
:100A600022689A42CAD141F48001826822F0E07281
:100A70000A438260C2E7000000007F4000F0FF03ED
:100A8000FFFF0700000020FE000008800003045064
:100A900000000450000052C7F4000020400D030085
:100AA000000084CBF8B54FF0000504002E460095F9
:100AB00002D0606D10B107E00120F8BD204600F0C3
:100AC000C7F8A66584F8506020688168C1F340715A
:100AD00019B18168564A1140816020688168C1F36C
:100AE000007179B98168534A114041F080518160A9
:100AF000514852490068B0FBF1F000E0401E009000
:100B00000028FBD120688168C1F3007141B9616D93
:100B100041F010016165A16D41F00101A165012560
:100B200001F0D5FF616DC90600D430B1606D40F0B1
:100B30001000606501252846F8BD606D20F48070C6
:100B400040F0020060652068806810F0010F0BD152
:100B50003B48806810F0010F06D13A48616882680E
:100B600022F47C120A438260E168606B627E084373
:100B7000A16841EA4231084394F8201040EA01405C
:100B8000012904D1A18C304A02EB41410843A16AFA
:100B900029B101F47071E26A014342EA010021685F
:100BA000CA682A4B1A400243CA60206801F08FFFCE
:100BB0000646206801F087FF304315D1207E94F867
:100BC0003010800340EA41022068C16844F2020309
:100BD00099431143C16094F8380001280CD0206873
:100BE000016921F001010161206901282068016B80
:100BF00021F00F0111D013E0D4E90F010843D4E92B
:100C000011121143084321680A6940F2FC739A43A8
:100C1000104340F001000861E6E7E269521E11430B
:100C20000163606D20F0020040F00100606582E722
:100C3000C0FFFF5FC0FFFF7FF4000020400D0300F6
:100C400000000450000304500000FEFF07C0F0FF46
:100C500000680449884203D14FF4005001F05CBFA2
:100C6000704700000000045010B50446006801F011
:100C70002EFF80BB94F8500001283ED0012084F85C
:100C800050002046FFF7E2FA002110B184F850101E
:100C900010BD626D40F601639A4342F48072626552
:100CA000626DD20404D5A26D22F00602A26500E0B6
:100CB000A16523681C221A6084F8501021684A68D4
:100CC00022F01C024A606169082921684A6803D041
:100CD00042F0040202E010E042F008024A60616B58
:100CE00021B921684A6842F010024A6021688A6886
:100CF000034B1A40121D8A6010BD022010BD000077
:100D0000C0FFFF7F2DE9F04FDFF854B100234FF013
:100D1000010C4FF0030A4FF00F090BF1040E97E09E
:100D20000CFA03F632407DD04C68022C01D0122C14
:100D30000ED1DC0800EB8408D8F820405D07EF0EE8
:100D400009FA07F5AC430D69BD402543C8F82050AA
:100D500007685D0091F804800AFA05F408F00308BA
:100D6000A74308FA05F848EA0708C0F800804F686A
:100D7000012F05D0022F03D0112F01D0122F10D137
:100D8000D0F80880CF6828EA0408AF4047EA08078F
:100D900087604768B7430E79C6F300169E403E430E
:100DA0004660C668A6438C68AC403443C4604C6857
:100DB000E4004CD52B4C23F003052E19B4689D0795
:100DC0002F0F09FA07F5AC43B0F1904F04D0264D30
:100DD000A84203D1012511E000250FE0234DA842D0
:100DE00001D102250AE0224DA84201D1032505E0E8
:100DF000204DA84201D1042500E00725BD40254330
:100E0000B560DBF800405D464E689443F60300D5BC
:100E100014432C60DEF8004075464E689443B603D8
:100E200002D500E013E014432C600D4D803D2C688A
:100E30004E689443F60200D514432C60084D7C3D67
:100E40002C684E689443B60200D514432C605B1C9A
:100E50000A6832FA03F47FF463AFBDE8F08F000054
:100E600080080058000001400004004800080048C5
:100E7000000C0048001000480AB18161704781628F
:100E8000704700000148806870470000E8000020BB
:100E90000148006870470000E800002090F84120F9
:100EA000202A24D190F84020012A20D0012280F865
:100EB0004020242280F841200268136823F00103B7
:100EC00013600268136823F4805313600268136888
:100ED0000B43136001680A6842F001020A60202196
:100EE00080F84110002180F8401008467047022029
:100EF000704790F84120202A22D190F84020012A02
:100F00001ED0012280F84020242280F8412002686F
:100F1000136823F0010313600268136823F47063FD
:100F200043EA0121116001680A6842F001020A6087
:100F3000202180F84110002180F8401008467047B9
:100F40000220704770B5040004D094F841000025D9
:100F500010B106E0012070BD84F84050204600F03A
:100F60004DF8242084F841002068016821F0010137
:100F700001606068216820F0706008612068816805
:100F800021F400418160E0680128A06807D040F4A6
:100F9000044021688860E068022803D006E040F43D
:100FA0000040F6E721684FF400604860206841681F
:100FB000114A114341602068C16821F40041C160B9
:100FC000D4E904010843A16940EA01202168C8600E
:100FD000D4E907010843216808602068016841F0EE
:100FE000010101606564202084F84100256384F8D4
:100FF0004250002070BD00000080000210B586B095
:10100000044614216846FFF7D0F811492068884249
:101010001BD1022001F080FD4FF44070009012209F
:101020000190012002900020039004200490694662
:101030000848FFF767FE4FF0B040816D41F40011A2
:101040008165806D00F40010059006B010BD0000B1
:10105000005400400004004802488168426811447E
:1010600081607047E8000020094810B5016800243D
:1010700041F480710160032000F090F8002000F03E
:1010800009F808B1012401E000F024F8204610BD61
:101090000040005870B50E4E054600247068A0B19F
:1010A00000F0ACFD71684FF47A72B2FBF1F1B0FB65
:1010B000F1F001F036F940B9102D06D20022294690
:1010C000501E00F04BF8356000E00124204670BD52
:1010D000E800002008B54FF0B040016D41F4002158
:1010E0000165006D00F40020009008BD002809DBB8
:1010F00000F01F02012191404009800000F1E02032
:10110000C0F88012704700280DDB00F01F0201219B
:1011100091404009800000F1E020C0F88011BFF349
:101120004F8FBFF36F8F7047002809DB00F01F025D
:10113000012191404009800000F1E020C0F8001139
:101140007047002809DB00F01F020121914040098F
:10115000800000F1E020C0F800127047F0B40E4BA0
:101160001B680C46C3F30223C3F10705042D00D905
:101170000425191D072901D2002300E0DB1E0126EA
:1011800006FA05F1491E214099409E40761E164000
:101190003143F0BC04F0D3BD0CED00E0064900F093
:1011A000070208684FF6FF03184040EA0220034A8E
:1011B00010430860704700000CED00E00000FA05E5
:1011C00001220168C0F86822002280F8602231F80C
:1011D000540F40F001000880088840F002000880A9
:1011E0001046704770B50F4D044669B101290AD108
:1011F000D4F8700203F0FAFDA069002803D0286833
:1012000040F00600286070BDA06928B102F0ECFF34
:10121000286820F006002860D4F87002BDE870400D
:1012200003F083BD10ED00E010B50C0605D501F00C
:10123000070100EB4110283003E000EB411000F5FE
:10124000947099B232B1012202730181190C41816B
:10125000002010BD00220273C180F9E700EB4112AB
:10126000D0F87002D26B03F027BC00EB4112D0F82B
:101270007002D2F83C2103F082BC70B504460B0624
:1012800001F0070004EB40114FF001024FF00005A0
:1012900003D581F82920283103E081F8295101F58F
:1012A0009471087094F82802012808D084F8282244
:1012B000206804F015FA84F82852002070BD02203E
:1012C00070BD70B5044601F00F006268904201D90C
:1012D000012070BD0B0601F0070004EB40114FF038
:1012E00001024FF0000503D581F82920283103E0E1
:1012F00081F8295101F594718D70087094F82802D5
:10130000012808D084F82822206804F090FA84F894
:101310002852002070BD022070BD0020704701F0EF
:10132000070100EB4110D0F8440170472DE9F0416E
:1013300004460F0601F0070004EB40114FF00106D0
:101340004FF0000503D581F82960283103E081F8CA
:10135000295101F5947108700A61CB704A7802B185
:10136000C881022B00D10D7194F82802012809D000
:1013700084F82862206804F083F8284684F828520C
:10138000BDE8F0810220FBE770B50C4601F00705CF
:1013900000EB4511C1E94F230022C1F8442181F837
:1013A000292181F8285101F594716207006804F041
:1013B00093FA002070BD70B504460D4601F0070099
:1013C0006168884201D9012070BD29064FF00006EE
:1013D0004FF0010205D504EB401181F82920283196
:1013E00005E004EB451181F8296101F594718A70DB
:1013F000087094F82802012807D084F82822206871
:1014000004F051FA680702D006E0022070BD04F52E
:101410000C71206804F009FA84F82862002070BD7D
:1014200070B50C4601F0070500EB4511C1E90F232B
:1014300000224A64012281F8292001F8285F62070E
:10144000006804F049FA002070BD10B50446006839
:1014500004F012FB000402D5204601F0B1FF206821
:1014600004F00AFB40050CD5206830F8441F21F435
:1014700080610180204600F033F90021204600F011
:101480005BF9206804F0F8FA400405D5206830F8CC
:10149000441F21F480410180206804F0EDFA8004AB
:1014A00005D5206830F8441F21F4005101802068E0
:1014B00004F0E2FAC0041FD5206830F8401F21F084
:1014C00004010180206830F8401F21F008010180EC
:1014D00094F86002012806D1002084F860020146D9
:1014E0002046FFF77FFE204600F00EF9206830F816
:1014F000441F21F480510180206804F0BDFA0005EA
:101500001AD5206830F8401F41F00801018020689A
:1015100030F8441F21F400610180206830F8401F3A
:1015200041F004010180206804F0A6FAC043C00421
:1015300002D5204600F030F9206804F09DFA00063C
:101540000BD5206830F8441F21F08001018094F809
:101550006002E0B1204600F01FF9206804F08CFA28
:10156000800508D5206830F8441F21F400710180FF
:10157000204600F0DDF8206804F07EFAC00505D5AD
:10158000206830F8441F21F48071018010BD20686C
:1015900030F8401F41F004010180206830F8401FFE
:1015A00041F008010180012084F860022068B0F851
:1015B00054003C2101EA9000C4F864020121204655
:1015C000FFF710FEC9E770B586B0040004D094F8A8
:1015D0002902002518B107E0012006B070BD84F88B
:1015E0002852204600F044F8032084F8290220689D
:1015F00004F013F9002001260CE004EB401181F8FF
:10160000296001F8280FC881CD700D614D61401C23
:10161000C0B28D6161688142EFD800200FE004EB19
:10162000401181F8295181F8280181F82B51C1F826
:101630003851C1F83C51401CC0B2C1F840516168FA
:101640008142ECD8142204F110016846FEF792FDA5
:1016500094E80F0004F0D2F884F8245084F829624A
:10166000E069012802D12046FFF7AAFD0020B4E777
:1016700010B586B0044614216846FEF796FD17495A
:101680002068884228D14FF0B044E06C40F001005F
:10169000E064E06C694600F0010005904FF4C05032
:1016A0000090022001900020029003900A200490F4
:1016B0004FF09040FFF726FBA06D40F08060A065E2
:1016C000A06D002200F08060059011461420FFF705
:1016D00045FD1420FFF728FD06B010BD006800404E
:1016E00070B5044680680125022801D0FEF7D3FFBB
:1016F0002946D4F8700203F02EFBD4F87002BDE83E
:10170000704003F0EABA000010B50446806930B1B9
:101710000648016821F00601016002F065FDD4F879
:101720007002BDE8104003F000BB000010ED00E0C7
:10173000D0F8700203F003BB10B5044690F82802FD
:1017400001280BD0012084F8280284F82410206896
:1017500004F0A9F9002084F8280210BD022010BD71
:10176000D0F8702200F50C71104603F000BB10B5E4
:10177000044690F8280201280CD0012084F82802A1
:10178000206804F034F8206804F067F9002084F839
:10179000280210BD022010BD10B50446D0F870021A
:1017A00003F024FBA069002804D00348016841F03D
:1017B0000601016010BD000010ED00E00248016864
:1017C00041F48061016070470404005802480068D9
:1017D00000F4C0607047000000040058024801682F
:1017E00041F4807101607047000400584FF0B04030
:1017F000016841F00401016070472DE9F0410446A1
:10180000002700783E4640064FF0B04517D5206BC4
:1018100078B1B0F5800F07D0B0F5000F3BD0B0F530
:10182000400F38D0012709E0E86840F48030E860D4
:1018300031E0201D01F045FF07002CD03E462088F6
:10184000000546D5D5F8900000F44076206CB042F3
:101850003ED0FFF7C3FF3EB3D5F89000D5F8901007
:1018600041F48031C5F89010D5F8901021F4803102
:10187000C5F89010216C20F440700843C5F8900022
:10188000D5F8900010F0010F22D0FFF7FBFA0646C2
:1018900041F2883818E0206BD5F8881021F4400117
:1018A0000143C5F88810CAE7206CD5F8901021F4E0
:1018B00040710143C5F890100AE0FFF7E3FA811B7D
:1018C000414501D9032703E001F05CF90128F4D177
:1018D0003E462078C00707D0A069D5F8881021F0CF
:1018E00003010143C5F888102078800707D5E06917
:1018F000D5F8881021F440610143C5F8881020789C
:10190000C00602D5A06A01F0A3F92078800602D5AE
:10191000E06A01F09DF92078400702D5206A01F0C5
:1019200088F92078000702D5606A01F082F92088E2
:10193000C00513D5606B01F073F9606BB0F1006FF7
:1019400003D1E86840F08070E860606BB0F1806FB0
:1019500004D1201D01F0EFFE00B10646208880056D
:101960001BD5A06BB0F1804F10D0B0F1004F0DD05F
:1019700060B120F08057002001F075F9384601F081
:101980004FF9A06BB0F1C05F03D006E001F06BF936
:10199000F7E7E86840F08070E8602088400518D5D7
:1019A000E06BD5F8881021F040510143C5F888104C
:1019B000E06BB0F1005F03D1E86840F48030E8608C
:1019C000E06BB0F1805F04D1201D01F0EEFE00B1AC
:1019D00006462088C00407D5606CD5F8941021F421
:1019E00040410143C5F89410208880040BD5E06C79
:1019F000696A21F0300101436962A06C696A21F0D3
:101A00000301014369623046BDE8F0812DE9F041F0
:101A10000F46040077D0784E306800F00700B842D7
:101A200012D2306820F0070038433060FFF72AFAFE
:101A3000054604E0FFF726FA401B02287DD83068EF
:101A400000F00700B842F5D120784FF0B04580078C
:101A500015D5A068A96821F0F0010143A960FFF73E
:101A600011FA804606E000BFFFF70CFAA0EB080071
:101A7000022862D8A868C0F300400028F4D020787B
:101A8000800617D56069D5F8081121F0F0010143EF
:101A9000C5F80811FFF7F6F9804605E0FFF7F2F9FF
:101AA000A0EB0800022848D8D5F80801C0F3404050
:101AB0000028F3D02078400618D5A069D5F8081181
:101AC00021F00F0141EA1010C5F80801FFF7DAF91B
:101AD000804605E0FFF7D6F9A0EB080002287CD885
:101AE000D5F80801C0F300400028F3D02078400763
:101AF00015D5E068A96821F4E0610143A960FFF70A
:101B0000C1F9804606E045E0FFF7BCF9A0EB08000C
:101B1000022862D8A868C0F340400028F4D020789A
:101B2000000716D52069A96821F4605141EAC00177
:101B3000A960FFF7A7F9804606E04EE0FFF7A2F99B
:101B4000A0EB0800022848D8A868C0F3804000280D
:101B5000F4D02078C0072CD06068022805D0032874
:101B600006D0A0B100F0FFFF04E000F0F6FF01E0B6
:101B700001F050F870B16068A96821F003010143D9
:101B8000A960FFF77FF9054641F288380BE001F0C4
:101B900010F8EFE70120BDE8F08100BFFFF772F910
:101BA000411B414519D800F0D2FF6168B0EB810FAD
:101BB000F4D1306800F00700B84215D9306820F041
:101BC000070038433060FFF75DF9044607E000BFC7
:101BD000FFF758F9001B022801D90320DBE7306822
:101BE00000F00700B842F3D102F072FBFFF750F9A2
:101BF000BDE8F041FFF74EBA0040005810B500F0C4
:101C00000FF84FF0B0418968044A01F0F00102EB8F
:101C100091010968B0FBF1F010BD0000D077000819
:101C20002DE9F04100F093FF204F38B3204C0428F9
:101C30002CD066004FF0B045082829D000F0E4FF12
:101C4000022808D003282AD000F0AAFF00F0F000F4
:101C500007EB90000468E868E968C0F30620604379
:101C600001F07002012101EB1212B0FBF2F2E86800
:101C700001EB5070B2FBF0F0BDE8F08100F090FF96
:101C800000F0F00007EB90000068F5E72046F3E76E
:101C90002868C0F300500028F8D13046ECE72868E7
:101CA000C0F300500028D6D13446D4E7107800089D
:101CB0000024F4002DE9F04104007DD020784FF09D
:101CC000B04580065FD500F042FF064600F09CFF5D
:101CD00076B10C2E01D101280AD0E06900282868CD
:101CE00040D040F001002860FFF7CCF806462EE017
:101CF00000F05FFF10B1E0690028DED000F050FF77
:101D00000146606A81420AD201F0D2FD002853D117
:101D1000606A00F05DFF206A00F051FF09E000F00A
:101D200057FF206A00F04BFF606A01F0C1FD0028F8
:101D3000EDD102F0CDFAFB480068FFF7ABF90028BF
:101D4000E5D120E0FFF79EF8801B02287DD800F047
:101D500030FF0028F6D0606A00F03AFF206A00F0F9
:101D60002EFF10E020F001002860FFF78BF80646F8
:101D700005E000BFFFF786F8801B0228E6D800F0D8
:101D800018FF0028F6D12078C00748D000F0DFFE09
:101D9000064600F039FF082E1AD00C2E01D1032878
:101DA00016D06068B0F5803F19D0B0F5A02F286834
:101DB00019D020F4803000E020E22860286820F468
:101DC000802028606068E8B1FFF75CF8064614E000
:101DD00000F0C3FE18B3606800288ED01FE02868AA
:101DE00040F48030EDE740F480202860F7E700BF42
:101DF000FFF748F8801B6428A8D800F0AEFE002842
:101E0000F6D00CE0FFF73EF8064604E0FFF73AF89C
:101E1000801B64289AD800F0A0FE0028F6D1207814
:101E200080073CD500F093FE064600F0EDFE042E40
:101E300010D00C2E01D102280CD0E06800282868B0
:101E40001CD040F48070286000E000E1FFF71AF831
:101E500006460EE000F087FE10B1E0680028BCD016
:101E6000206900F086FE1AE0FFF70CF8801B0228BC
:101E700084D800F078FE0028F6D0F1E720F48070D6
:101E80002860FEF7FFFF064605E000BFFEF7FAFFF9
:101E9000801B0228B0D800F066FE0028F6D120682A
:101EA000010701D4C1064ED56169E1B3C0064BD527
:101EB00000F06FFE98B9D5F8940040F00100C5F825
:101EC0009400FEF7DFFF064605E000BFFEF7DAFFED
:101ED000801B022890D800F05CFE0028F6D0D5F8D0
:101EE000940040F00400C5F89400FEF7CBFF0646CE
:101EF00005E000BFFEF7C6FF801B03288AD8D5F88F
:101F00009400C0F3C0000028F4D0A069D5F8941064
:101F100021F4706141EA0020C5F89400D5F89400DE
:101F200020F0010000E035E0C5F89400FEF7AAFFBC
:101F3000064604E0FEF7A6FF801B022898D800F0B2
:101F400028FE0028F6D14EE0D5F8940040F00100BC
:101F5000C5F89400FEF796FF064604E0FEF792FFF0
:101F6000801B022873D800F014FE0028F6D0D5F8A4
:101F7000940020F00400C5F8940004E0FEF782FF0E
:101F8000801B032863D8D5F89400C0F3C000002854
:101F9000F4D128E0D5F8940020F00400C5F89400AE
:101FA000FEF770FF064604E0FEF76CFF801B032877
:101FB0004DD8D5F89400C0F3C0000028F4D1D5F86E
:101FC000940020F00100C5F89400FEF75BFF064680
:101FD00005E000BFFEF756FF801B022837D800F04F
:101FE000D8FD0028F6D12078400752D54E4F3868EA
:101FF000C0050DD4FFF7F2FBFEF744FF064604E0F0
:10200000FEF740FF801B022821D83868C005F7D5AD
:10201000A068012816D00528D5F8900018D020F027
:102020000100C5F89000D5F8900020F0040000BF32
:10203000C5F89000A06841F28836D8B1FEF722FFBB
:10204000074610E0D5F8900040F00100F0E789E085
:1020500040F00400C5F89000F4E700BFFEF712FF5F
:10206000C01BB0427ED8D5F89000C0F340000028D5
:10207000F4D00EE0FEF706FF074604E0FEF702FF8D
:10208000C01BB0426ED8D5F89000C0F340000028C5
:10209000F4D1207840062CD5A06A0028D5F8980005
:1020A00014D040F00100C5F89800FEF7EBFE06469C
:1020B00005E000BFFEF7E6FE801B022875D8D5F8C4
:1020C0009800C0F340000028F4D012E020F0010096
:1020D000C5F89800FEF7D6FE064604E0FEF7D2FEED
:1020E000801B022861D8D5F89800C0F34000002872
:1020F000F4D1E06AB8B300F02AFD0C28E06A5CD0A5
:102100000228286820F08070286011D0E86820F04C
:102110000300E860E86805490840E860FEF7B2FEA1
:10212000044645E0E800002000040058FFFFFEEEF2
:10213000FEF7A8FE064604E0FEF7A4FE801B022878
:1021400033D800F067FD0028F6D1D4E90C0108432C
:10215000D4E90E2141EA02210843216C0843616C55
:10216000084301E021E04BE0E968264A11400843BA
:10217000E860286840F080702860E86840F080508F
:10218000E860FEF77FFE044605E000BFFEF77AFE3A
:10219000001B022809D800F03DFD0028F6D02FE0F2
:1021A000FEF770FE001B022802D90320BDE8F08173
:1021B00000F030FD0028F3D122E00128F6D0E868D5
:1021C000226B00F00301914218D1626B00F07001A4
:1021D000914213D1A16BC0F3062291420ED1E26B62
:1021E00000F47811914209D1226C00F060619142B3
:1021F00004D1616C00F06040884201D00120D5E735
:102200000020D3E78C80C1112DE9F041040052D0A9
:1022100094F82100002620B984F82060204600F0C0
:1022200057F8022084F821002168CA2048622168FA
:1022300053204862204601F061FBFF250427002857
:10224000206803D0456284F8217034E081681F4A19
:1022500011408160216888686268A369104322691F
:102260001A43104388602168E068086120680169AA
:10227000228941EA024101612068C16821F08001A0
:10228000C1602068C16C21F00301C164E16960692B
:1022900001432068C26C1143C164206880688006D5
:1022A0000CD4204600F022F840B12068456284F842
:1022B000217084F820600120BDE8F081206845622B
:1022C000012084F821000020F6E70000BFFF8FFF07
:1022D00000680549884206D14FF0B04050F8901F81
:1022E00041F40041016070470028004070B5044689
:1022F0000068C16821F0A001C160FEF7C3FD05467A
:102300004FF47A7607E000BFFEF7BCFD401BB042F9
:1023100001D9032070BD2068C0688006F4D5002074
:1023200070BD10B5401EB0F1807F01D3012010BDFB
:102330004FF0E02460610F21601703F000FD0020E2
:10234000A06107202061002010BD704770477047D2
:1023500030B590F83C20012A37D0012280F83C208B
:10236000CA688C6822F4407222434C6822F480626E
:1023700022430C6822F4006222430C6922F480524A
:1023800022434C6922F4005222438C6A22F4804298
:1023900022430C8B22F4702242EA04420C4D046862
:1023A0000023AC420CD18D8C22F4700242EA05521B
:1023B000CD6922F080722A43096A22F000720A4332
:1023C000626480F83C30002030BD022030BD000047
:1023D000002C014070B590F83C20012A21D0012446
:1023E00080F83C40022280F83D2003685A689D68CE
:1023F0000D4EB34203D122F470064A68324322F0F4
:1024000070060A688968324325F0800529435A60BE
:102410000268916080F83D40002180F83C10084639
:1024200070BD022070BD0000002C014010B50400FA
:1024300003D094F83D0010B107E0012010BD00204A
:1024400084F83C00204600F00DF8022084F83D009E
:10245000211D206801F0CAFF012084F83D00002002
:1024600010BD000010B50068084988420DD14FF436
:10247000802000F05BFB002211461A20FEF76EFE62
:10248000BDE810401A20FEF74FBE10BD00480140C5
:10249000704770B50446006801694FF00005C943F4
:1024A000890715D4C168C943890711D4E91E0161A0
:1024B00001202077206880698007204602D0FFF73E
:1024C000E7FF04E000F0E0F8204600F00FF9257780
:1024D00020680169C943490717D4C168C94349073E
:1024E00013D46FF004010161022020772068806915
:1024F00010F4407F204602D0FFF7CAFF04E000F04E
:10250000C3F8204600F0F2F8257720680169C94336
:10251000090716D4C168C943090712D46FF008012E
:102520000161042020772068C0698007204602D01E
:10253000FFF7AEFF04E000F0A7F8204600F0D6F861
:10254000257720680169C943C90617D4C168C94302
:10255000C90613D46FF010010161082020772068AC
:10256000C06910F4407F204602D0FFF791FF04E0DD
:1025700000F08AF8204600F0B9F825772068016954
:10258000C943C90708D1C168C943C90704D1891E15
:102590000161204600F0ABF820680169C9430906D3
:1025A00009D4C168C943090605D46FF080010161EF
:1025B0002046FFF7CBFE20680169C943C90509D44D
:1025C000C168C943090605D46FF4807101612046D2
:1025D000FFF7BBFE20680169C943490609D4C168F9
:1025E000C943490605D46FF040010161204600F05F
:1025F0007FF820680169C94389060BD4C168C943C3
:10260000890607D46FF0200101612046BDE87040C3
:10261000FFF79DBE70BD70B5044690F83C000128E0
:102620000ED0012584F83C50022084F83D000C2A8D
:1026300019D007DC5AB1042A0DD0082A1ED10EE0A9
:10264000022070BD102A12D0142A17D113E020687E
:1026500001F002FF12E0206801F03AFF0EE020686E
:1026600001F072FF0AE0206801F0A8FF06E0206890
:1026700001F0D4FF02E0206801F0FEFF84F83D5035
:10268000002084F83C0070BD704710B5040003D0F2
:1026900094F83D0010B107E0012010BD002084F83F
:1026A0003C00204600F00CF8022084F83D00211D7B
:1026B000206801F09BFE012084F83D00002010BD41
:1026C00010B50068084988420CD1C01400F02EFAF9
:1026D000002211461A20FEF741FDBDE810401A20E5
:1026E000FEF722BD10BD0000002C0140704770476E
:1026F00070477047704770470248416821F00101F8
:1027000041607047000C005802494FF480308860E7
:1027100070470000000C005840BF20BF024801680D
:1027200041F40041016070470C04005808B54FF0B7
:10273000B040016D41F480110165006D00F480101E
:1027400000900848016841F001010160016841F40E
:10275000803101602C20FEF7E7FCBDE808402D2009
:10276000FEF7E2BC000C005870B5094D0446082184
:10277000284600F0E5F930B106480460686820F4A6
:102780000020686070BDA0474FF40020A86070BDB5
:10279000000C0058440000200248416821F002016A
:1027A00041607047000C005804484FF400318160CC
:1027B000416821F40031416070470000000C00586E
:1027C0000248416821F0080141607047000C005840
:1027D000F0B50024EFF3108572B6124E03E0641CCE
:1027E000E4B2062C06D204EB440706EBC7073F7B96
:1027F000002FF4D1062C10D004EB440C06EBCC07D0
:102800004FF0010E87F80CE085F3108838617A7379
:1028100046F83C300C700020F0BD85F31088012094
:10282000F0BD0000140D00202DE9F041414CCA22FA
:10283000A1600B685A620B6853225A623E4A1368C1
:1028400043F02003136012683B4E02F00702C2F10E
:1028500004030836237032684FF4FE0595FAA5F597
:1028600002F4FE02B5FA85F5EA40521CD5B2657055
:102870003268C2F30E02521C6280521E6A43A2F5F5
:10288000A072DA404FF6FF739A4201D3A38000E0B2
:10289000A2802A4A4FF40023156845F400251560EC
:1028A000264A8032156845F400251560A0B10868F5
:1028B000C068400502D50320FEF743FCA168FF2055
:1028C00009684862032100220846FEF747FCBDE87C
:1028D000F0410320FEF728BC194A01209070801EA9
:1028E00050600020054602F1080600BF00EB4007DB
:1028F00006EBC7073D73401CC0B20628F6D306207E
:1029000010700868826822F4806282600868C1687A
:1029100001F0800161F49061C16008480C300360EF
:102920000320FEF7E3FBA0680068816841F4804162
:102930008160C3E7200000200828004000080058FC
:102940000C0D00202DE9F0410E46804600EB4801B9
:102950001A4800EBC104207B022802D1404600F057
:1029600031F8EFF3108572B60320FEF7CCFB144F5D
:10297000CA21B8680268516200685321416202208E
:102980002073A6606660404604F012FC0B490839CB
:102990000A784978914202D000F0DAFF02E0A1689B
:1029A000081AA060B968FF20096848620320FEF792
:1029B000BBFB85F31088BDE8F0810000140D0020FA
:1029C0002000002070B50646EFF3108572B6032094
:1029D000FEF799FB254CCA21A06802685162006885
:1029E00053214162224906EB460001EBC000007B07
:1029F00002280DD10021304603F074F91C49083932
:102A0000087806280ED04978814201D000F0A0FF56
:102A1000A168FF20096848620320FEF785FB85F363
:102A2000108870BD13480068C043400504D4A068F6
:102A30000068C1684907FCD4A06801688A6822F46C
:102A400080628A600168CA685207FCD50846C96876
:102A500001F0800161F49061C16007494FF40020EA
:102A600008600320FEF742FBD2E7000020000020B0
:102A7000140D0020082800400C080058FEE770479D
:102A8000F0B500230A24302537261F4611E000BF89
:102A9000B4EB107F02D905EB107C01E006EB107C53
:102AA00001F813C001EB430C00015B1C8CF80170B2
:102AB000DBB29342ECD3F0BD704700EB8100006EB7
:102AC00000F0F84070478068C0F3C000704780682D
:102AD000C0F380007047042303EAD15310B51844B3
:102AE0004369C1F3045107248C40A3438A40134334
:102AF000436110BD00EB8100016E21F000411143E4
:102B00000166704708B54FF0B041CA6C0243CA6411
:102B1000C96C0140009108BD08B54FF0B041CA6CC6
:102B20000243CA64C96C0140009108BD08B54FF06A
:102B3000B0410A6E02430A66096E0140009108BD69
:102B4000C068814301D000207047012070474FF0DA
:102B5000B040806800F00C0070474FF0B040006853
:102B6000C0F3404070474FF0B0400068C0F3802091
:102B700070474FF0B0414A6822F0FE4242EA0060DE
:102B8000486070474FF0B040D0F89000C0F340006C
:102B900070474FF0B040D0F89400C0F34000704749
:102BA0004FF0B040006800F0F000B02800D9B0202D
:102BB00070474FF0B0400068C0F3400070474FF0DE
:102BC000B0414A6822F47F4242EA002048607047E0
:102BD0004FF0B0410A6822F0F00202430A607047E9
:102BE0004FF0B040016821F08061016070474FF004
:102BF000B040016841F08061016070474FF0B04023
:102C00000068C0F3C06070474FF0B040C06800F08B
:102C1000030070474FF0B0400068C0F34060704759
:102C20004FF0B04151F8882F22F0406202430A6011
:102C3000704710B54FF0B04151F8883F4FF47F22F4
:102C400002EA1014A34302EA001003430B6010BD14
:102C50004FF0B04151F8882F030C1B049A4342EA0D
:102C60000040086070474FF0B04151F8882F22F0C3
:102C7000404202430A607047006040607047EFF3D3
:102C8000108272B60368C1E900300160086882F3FF
:102C9000108841607047EFF3108272B60860436895
:102CA0004B604160486882F3108801607047EFF321
:102CB000108172B60268824201D1012000E000203A
:102CC00081F31088704710B5EFF3108472B6026874
:102CD0000A60006800F003F884F3108810BDEFF379
:102CE000108172B6D0E900231A6005C881F31088FC
:102CF0004260704770B50D4A157802F1080401EB87
:102D0000410204EBC20300EB400204EBC202A94201
:102D100008D01D7D05EB450604EBC60460755175B2
:102D2000157500E05175187570BD00000C0D002080
:102D3000704770B5D0F8B842054694F8180240B90B
:102D4000D4F8140228B1607A18B90121284602F09B
:102D50003BF88121284602F037F8607A022808D132
:102D600004F503722846BDE870401F23012101F0DD
:102D7000ABBF70BD70B5D0F8B84205460121D4F89C
:102D80001002C4F83002D4F81402C4F83402284601
:102D900001F03FFF1F280DD12849D4F80C028842CA
:102DA00008D194F81912012904D894F81A0208B12C
:102DB000102809D994F8191220230522284601F079
:102DC000B9F80220607209E004F21B22284600F0E4
:102DD0007DFE0028207A08DA052804D02846BDE8C0
:102DE0007040FFF7A6BF012122E0022825D001286C
:102DF00023D0032821D06689CEB1D5F8B812284651
:102E000004F10C02D1F81432B34200D33346D1F8A6
:102E100034429BB2A41BC1F83442002481F83842EA
:102E200004240C72BDE87040812101F0E8BF00214C
:102E30002846BDE8704000F083B870BD555342434A
:102E400010B5D0F8B842627A022A08D009060BD52C
:102E5000012A09D0BDE81040012100F071B881219C
:102E600001F0B2FF0020607210BD10B5D0F8B8229A
:102E70000446107A022805D0032801D0042810D176
:102E8000002109E092F81912204602F21B2200F0FC
:102E90001DFE002805DA01212046BDE8104000F0A3
:102EA0004FB810BD10B5D0F8B8220446107A80B1E2
:102EB000012813D192F81912204602F21B2200F0C9
:102EC00005FE00280ADA2046BDE81040012100F086
:102ED00037B82046BDE81040FFF74CBF10BDD0F812
:102EE000B80200210172704770B5D0F8B8420021D5
:102EF00005462172617284F85D1284F85C12D0F884
:102F0000BC020168002088470121284601F078FEB4
:102F10008121284601F074FE04F503722846BDE8BD
:102F200070401F23012101F0CFBED0F8B82200214C
:102F30001172012151721F2302F5037201F0C4BE08
:102F400070B5D0F8B84205460B48C4F82C0284F896
:102F50003812002020720D2304F50B7281212846BF
:102F600001F04DFF04F503722846BDE870401F23B1
:102F7000012101F0A9BE00005553425330B587B07E
:102F800018216846FDF711F9144813490024C0E9D7
:102F9000001484600425C460C0E9044504764476C6
:102FA0000121C16180F820408462C46280F8304011
:102FB000446380F83840FDF775FD0948009006200D
:102FC000CDE901047F200594CDE903056946034856
:102FD000FDF786FB07B030BD00000450A40D0020B3
:102FE000000084CB10B507490748FDF755FB10B129
:102FF0004FF0FF3010BD03490120491E087000202A
:1030000010BD000019000020040000202DE9F0414F
:1030100086B014216846FDF7C8F80420FFF772FD5A
:103020000220FFF76FFD0120FFF76CFD1020FFF776
:1030300069FD4FF0904600220D213046FDF71CFF40
:10304000DFF87880002203214046FDF715FF1C4F72
:10305000002210213846FDF70FFF0D2000900125BA
:103060000024CDE90154694630460394FDF74AFE39
:1030700003200090CDE90154694640460394FDF7D2
:1030800041FE10200090CDE9015469463846039472
:10309000FDF738FEE803CDE90004694630460294A6
:1030A000FDF730FE0820CDE9000469464046029451
:1030B000FDF728FE06B0BDE8F081000000040048DE
:1030C000001000480E4810B50C4901600D494160E0
:1030D00000210122C0E90212016141618161C161E7
:1030E0000162FDF72FFF00210548FDF7D7FEBDE87F
:1030F000104000210248FDF7FCBE000000540040D3
:10310000080E0020BC7D701010B596B000241294FB
:1031100013941C210BA81494FDF747F82C21684642
:10312000FDF743F819481849C0E900148460C460E9
:10313000046144618461FFF7A8FA1294139412A900
:1031400012481494FFF746F90B940C940D940E94C6
:103150000F94109400220BA90C481194FFF75BFA0E
:1031600000944FF40050CDE904400194029403947C
:1031700000030694CDE907400994694603480A9480
:10318000FFF7E6F816B010BD002C0140780E0020C5
:1031900010B500220F49104801F067FC08B1FDF797
:1031A0007AFA0E490C4801F0B4FF08B1FDF773FA42
:1031B0000B49094801F0ECFE08B1FDF76CFA06482E
:1031C00001F0FCFF002803D0BDE81040FDF763BA12
:1031D00010BD000048000020F80E00203001002043
:1031E0009C000020FEE770470549096818B10029D6
:1031F00005D001200847002901D00020FAE77047D8
:103200001C0100207047000001460748074B00E002
:103210000838C2798A4201D09842F9D1D2B28A42A2
:1032200000D0002070470000F873FF1F0070FF1FE0
:10323000FCF7A0BFFCF7BBBF7047704770470000AA
:103240002DE9F04F8BB05C4800F07EFF8F208DF8A9
:103250001800E5208DF81900B3208DF81A00D5204C
:103260008DF81B002E208DF81C007F208DF81D008E
:103270004A208DF81E0098208DF81F002A208DF816
:10328000200048208DF821007A208DF82200CC20E3
:103290008DF8230040208DF82400FE278DF825703E
:1032A00000248DF82640DFF814818DF8274008238C
:1032B000012206A90220CDF8008002F01BFF4FF08A
:1032C000190AED258DF818A08DF8195082208DF877
:1032D0001A008DF81C5021208DF81D004FF0410977
:1032E0004C208DF81E009D208DF81F008DF8209039
:1032F00045208DF8210022208DF822008E208DF8A7
:10330000230001268DF824908DF825708DF8264035
:103310008DF8274008F10200CDE904604FF0AE0BB4
:103320000A218DF81BB0CDE902610620CDE9000429
:103330000223B8F8000006AA194602F07CFE8DF8B8
:1033400018A08DF8195082208DF81A008DF81C50A5
:1033500021208DF81D004C208DF81E009D208DF839
:103360001F008DF8209045208DF8210022208DF837
:1033700022008E208DF8230042208DF824008DF845
:1033800025708DF826408DF8274008F10400CDE91E
:1033900004600A218DF81BB0CDE902611020CDE94F
:1033A00000040223B8F8000006AA194602F043FE02
:1033B0000BB0BDE8F08F00005D360008B0020020C1
:1033C0002DE9F05F044640F68F7B48F60F7A40F215
:1033D000024937E1B0F8441011F00F0627D030F859
:1033E0002670390473D530F8261001EA0B0141F03C
:1033F000800120F8261004EB461595F8340105F5F8
:103400009475002820687DD0297830F82120520456
:10341000B0F8502002EB000375D509EBC101595AF1
:10342000C1F309015FEA01086ED02A89C2E0C9062A
:103430002BD4018801EA0A0141F40041018020688F
:1034400004F12805B0F850102A78014409EBC200B5
:10345000085AC0F309006064E16B0844E06300218E
:103460002046FDF7FBFE94F824000028B1D0A8699F
:103470000028AED194F8240040F080012068A0F824
:103480004C10002084F82400DCE0018804F59475D9
:103490000A051DD5B0F850102A78014440F20640C4
:1034A00000EBC200085A04F50C71C0F30903EB618C
:1034B000EA88206802F0E3FA2168088800EA0B0035
:1034C00040F0800008802046FEF74AF9BAE097E015
:1034D000090443D5018801EA0B0141F08001018014
:1034E0002068B0F850102A78014440F2064000EB02
:1034F000C200085A83059B0DEB6111D0696979B14F
:10350000EA8802E037E04AE058E0206802F0B7FAC3
:10351000E96968690844686100212046FDF7A5FE55
:103520002068B0F850100844296900F20640B1B193
:103530003E291AD24A08C90700D0521C4FF6FF7123
:1035400001EA82210180216808884BF68F721040C1
:1035500080F4405048F280021043088072E00188F5
:1035600021F4F84141F40041ECE749094FF40042ED
:1035700042EA8121E6E7B0F850102B78014440F28E
:10358000064202EBC302895AC1F309015FEA01084E
:1035900020D0EA884346696902F071FA1AE040F2E5
:1035A000064202EBC101595AC1F309015FEA010861
:1035B00004D06A894346696902F061FA2978226871
:1035C00032F8210048F68F73184048F2C0031843C0
:1035D00022F82100E96901EB0800E861686900EB65
:1035E00008026A61AB6913B12869404504D929789A
:1035F0002046FDF73AFE03E029782046FDF7C4FE99
:1036000038061FD5226804EB461032F8261001EA6E
:103610000A0141F4004122F826102168B1F8502037
:10362000531810F8282F09EBC201595AC1F30901A8
:10363000C16142690A44426101788369204653B1FD
:10364000FDF7EEFE2068B0F8441009043FF5C2AE65
:103650000020BDE8F09FFDF701FEF3E71FB510F86D
:10366000011F0024FF2926D130F8021FA1F5406177
:10367000013920D1114A8188801C93889B1C994272
:103680000CD1007A0124C00701D0002000E0012005
:103690008DF800006846FFF7D1FD0CE05288521CFF
:1036A000914208D103218DF80010817908308DF8FE
:1036B00008100190EEE704B0204610BDB0020020D3
:1036C00070472DE9F04106460025FFF789FAFDF71E
:1036D000D9FB044604E0FDF7D5FB001B02281DD8EA
:1036E000FFF78CFA0028F6D14FF0B044206931681A
:1036F00020F4FE4040EA012020612069716820F436
:10370000781008432061FFF772FAFDF7BBFB07460C
:1037100006E0FDF7B7FBC01B022801D9032507E02F
:10372000FFF76CFA0128F4D1206931690843206160
:103730002846BDE8F0812DE9F04106460025FFF757
:103740004FFAFDF79FFB044604E0FDF79BFB001BCF
:1037500002281DD8FFF752FA0028F6D14FF0B044E6
:103760002069316820F4FE4040EA01202061206990
:10377000B16820F0606008432061FFF738FAFDF778
:1037800081FB074606E0FDF77DFBC01B022801D93F
:10379000032507E0FFF732FA0128F4D120693169E7
:1037A000084320612846BDE8F0812DE9F041064636
:1037B0000025FFF715FAFDF765FB044604E0FDF769
:1037C00061FB001B02281DD8FFF718FA0028F6D16C
:1037D0004FF0B0442069316820F4FE4040EA0120F7
:1037E00020612069F16820F0604008432061FFF704
:1037F000FEF9FDF747FB074606E0FDF743FBC01B5C
:10380000022801D9032507E0FFF7F8F90128F4D1D0
:1038100020693169084320612846BDE8F081000035
:1038200070B5214A8EB00DF1100C78CA8CE8780082
:1038300038CA08AE86E838003CCA8DE83C0000244F
:10384000B1F5007F6A46214607D008AB53F82150F6
:1038500085420BD352F821400BE004AB53F82150C2
:103860008542F7D2491C0429F8D302E0491C0329F8
:10387000ECD30E4E306820F0070020433060FDF797
:1038800001FB054608E000BFFDF7FCFA401B0228DB
:1038900002D903200EB070BD306800F00700A042CE
:1038A000F2D10020F6E70000A4770008004000589D
:1038B00010B50F49B02801D9C86A03E03C2202EADA
:1038C000900008584FF0B041D1F80811094A01F0B2
:1038D0000F0152F82110B0FBF1F4FDF777FF01461C
:1038E0000548B4FBF0F0BDE81040FFF799BF0000B9
:1038F00010780008D077000840420F0070B50446E9
:103900000068C168490614D44FF0FF31C160FDF76B
:10391000B9FA05464FF47A7607E000BFFDF7B2FA30
:10392000401BB04201D9032070BD2068C06840062A
:10393000F4D5002070BD0000044A106881B2106800
:1039400080B2814201D00146F9E770472828004043
:103950002DE9F041224800682249C04342058868A9
:1039600003D40268D3685B07FCD40068884681688A
:1039700021F4806181601C4E347806F1080704EB65
:10398000440007EBC000856800F072F800234FF098
:10399000010C854201D200220AE0B8F80420414619
:1039A0000244AA4202D28A88B37012E0291A8AB26B
:1039B00086F802C00DE000BF04EB440107EBC10133
:1039C0008C68844201D28B6002E08C68241A8C607F
:1039D0004C7D062CF0D1BDE8F041104600F006B851
:1039E00008280040200000200C0D002070B51C4E5F
:1039F00004002CD01B4D012C02D82878012801D0BE
:103A0000641EA4B2A8680168CA685207FCD50846BB
:103A1000C96801F0800161F49061C16012494FF4FE
:103A2000002008600320FDF761FB104801686FF378
:103A30000F0121430160FFF77FFF7060A8680068F5
:103A4000816841F480618160AFF3008070BDFFF751
:103A500073FF7060BDE870400320FDF772BB00008B
:103A60000C0D0020200000200C08005814280040F5
:103A700010B50B4C6068401C10D0FFF75DFF62680A
:103A80000849824202D36268101A03E04A88101A79
:103A9000626810444A7809785043C84080B210BD2B
:103AA0000C0D00202000002010B5D0F8B8421A44B8
:103AB000D4F860329A4206D92123052200F03AFA5E
:103AC0004FF0FF3010BD002010BD00002DE9F04187
:103AD00013780024232B7DD00DDC1A2B7BD005DC42
:103AE000EBB1032B39D0122B11D163E01B2B01D08A
:103AF0001E2B0CD18DE02A2B6ED004DC252B6CD034
:103B0000282B04D1ABE02F2B68D05A2B67D0202371
:103B1000052200F00FFA4FF0FF30BDE8F081D0F839
:103B2000B87205460E46D7F8140228B1202397F83C
:103B30001912052228469FE0D5F8BC02816830465C
:103B4000884740B13A2302223146284600F0F2F974
:103B5000052038729AE07C8198E0D0F8B802002104
:103B60004318491CC9B21C731229F9D3702101737F
:103B70000C21C17490F85C1290F85D32994212D019
:103B800000EBC103491C93F83C52857393F84152F2
:103B9000057693F84032C9B2437680F85C12042966
:103BA00001D180F85C4212214181117912296DD82E
:103BB00041816BE05478D0F8B832E40712D0072086
:103BC00033495881401E0004000C03EB00040A5CDA
:103BD000227305E03DE020E044E03DE045E02AE0DE
:103BE000F0D153E0D0F8BC0201EBC1011279C069F9
:103BF00000EB81010879401D824200D810465881AF
:103C000004E0401E80B21C180A5C22730028F8D120
:103C10003CE0D0F8B802448138E0D0F8B81208206F
:103C20001C4A4881401E0004000C01EB0004135C98
:103C30002373F7D12AE0D0F8B8020821164A41814F
:103C4000491E0904090C00EB0104535C2373F7D1EE
:103C50001CE000F038F919E000F00AF916E000F075
:103C6000BAF813E000F080F910E05278D0F8B852BA
:103C7000920704D52423052200F05CF906E0D5E97B
:103C80009923FFF711FF002800DB6C81002044E737
:103C9000EC780008F3780008FB7800082DE9F04183
:103CA000D0F8B84206460F46B4F85E02D4F868521F
:103CB0004FF4007145438D4200D30D46B5FBF0F043
:103CC00083B2D6F8BC0204F10C01D4F86422D0F817
:103CD00010C088463846E047002809DA112304223C
:103CE0003946304600F026F94FF0FF30BDE8F0814C
:103CF000ABB242468121304601F081F8B4F85E0251
:103D0000D4F86422B5FBF0F1B5FBF0F01144C4F82F
:103D10006412D4F86812081AC4F86802D4F834128D
:103D2000A1EB0501C4F8341201D103202072002058
:103D3000DCE72DE9F047D0F8B84207464FF40075AC
:103D4000B4F85E02D4F8686288464643AE4200D3B7
:103D50002E46B6FBF0F083B2D7F8BC0204F10C019A
:103D6000D4F86422D0F814C089464046E0470028C1
:103D700009DA032304224146384600F0DBF84FF00D
:103D8000FF30BDE8F087B4F85E12D4F86422B6FBC9
:103D9000F1F01044C4F86402B6FBF1F0D4F86822E4
:103DA000101AC4F86802D4F83422A2EB0602C4F850
:103DB00034220BD04843A84200D3284683B24A4657
:103DC0000121384600F080FF0020DAE70021384664
:103DD000FFF7B6F8F8E72DE9F041D0F8B84206460B
:103DE0001546207A8846C8BB94F818024FF0FF3772
:103DF00000062ED5D6F8BC0281684046884730B10F
:103E00003A2302224146304600F094F813E0D5F8F8
:103E10000200414600BA20F0FF0268790243C4F86C
:103E20006422B5F8070043BA3046C4F86832FFF799
:103E30003BFE002802DA3846BDE8F08102202072FD
:103E4000B4F85E12D4F868024843D4F814128842D9
:103E500005D0202394F819120522D4E7FFE74FF488
:103E60000070608141463046BDE8F041FFF716BF63
:103E700070B505460E46D5E9AE4004F25E224368B1
:103E8000911C3046984740B13A23022231462846D9
:103E900000F050F84FF0FF3070BDD4F86002401EC3
:103EA000010E2173010C6173010AA173E0730020FC
:103EB00020746074B4F85E02010AA174E0740820F2
:103EC0006081002070BD2DE9FC410546D0F8B84264
:103ED00000200F4606462118401C80B20E730C28A5
:103EE000F9D3D5F8BC026A4601A943683846984719
:103EF00048B13A2302223946284600F01BF84FF019
:103F0000FF30BDE8FC810820E0730198401E010EDF
:103F10002174010C6174010AA174E07402202075FF
:103F20006675BDF80000010AA175E0750C2060817E
:103F30000020E6E7D0F8B80290F85D1200EBC1016E
:103F400081F83C2290F85D22002100EBC20282F849
:103F5000401290F85D22521CD2B280F85D22042AF1
:103F600001D180F85D1270472DE9F041D0F8B842D8
:103F700005461746207A884620B12846BDE8F0411C
:103F8000FFF7D7BE94F818024FF0FF36000635D47D
:103F9000D5F8BC0281684046884728B13A230AE038
:103FA0002846FFF7C7FF1DE0D5F8BC02C1684046B0
:103FB000884718B1272302224146F1E7D7F80200CB
:103FC000414600BA20F0FF0278790243C4F8642227
:103FD000B7F8070043BA2846C4F86832FFF764FD13
:103FE000002802DA3046BDE8F081B4F85E02D4F869
:103FF00068124143D4F81402884204D0202394F874
:1040000019120522CCE74FF40070814200D301461B
:1040100001208BB22072014604F10C02284600F008
:1040200053FE0020DFE71FB500F10C026B46212193
:104030004FF6664003F0D0FA9DF80E0004B010BDB4
:104040004FF480300860C0111080002070470020BD
:104050007047002070470020704700207047002004
:1040600070470020704700002DE9FC41214D10F8F9
:10407000011F00271E4EEB8C052902D03E2931D1AD
:104080000DE0B0F80300984202D1EF8485F89070FB
:104090000120FCF7C7F901203070E88C1EE010F811
:1040A000021F012909D003291CD00C291AD101AA09
:1040B0006946184602F006FF14E0441C95F891008A
:1040C000FEF780FC95F8900004280ED05FF0050004
:1040D00085F89000B4F80100E884377070800448D7
:1040E000FFF7ABF80120BDE8FC810620F0E70000F7
:1040F0002C000020F8010020114910B5002008779D
:10410000091F0870FCF7F0F9FCF7ABFAFCF7C0FAEE
:10411000FCF7C0FAFEF7EDFAFEF7ECFAFEF7EBFA61
:10412000FEF7ADFCFEF7C8FC00F080FBFFF788F857
:10413000FFF768F800F006F8FEF7FAFD10BD000082
:10414000900200207047000003490A7F41F82200D6
:10415000087F401C087770479002002070B5064623
:10416000441C4078FF2819D1608800F47F40B0F5E6
:10417000406F13D100250D4C0DE000BF54F8251001
:104180003046884728B1012802D002280BD00120F0
:1041900070BD6D1CEDB2207FA842EFD83046BDE85F
:1041A0007040FFF761BF002070BD0000900200204A
:1041B0007047000038B5084C08E069460748FEF72C
:1041C00082FD206900990069FEF765FD0348FEF74E
:1041D0006EFD0028F1D038BDC80200201401002077
:1041E0007047FCF739BF00002DE9F041AEB048211F
:1041F0006846FBF7DAFF1C2126A8FBF7D6FF502103
:1042000012A8FBF7D2FF4FF0B04050F8901F21F0FA
:10421000180101602D48016821F4C06141F400716A
:1042200001600068002400F4C0602D902F200090F1
:104230004FF48030019001200102CDE902014021BC
:1042400004916021CDE908410790CDE90C042020BC
:1042500005214FF0020806060EAACDF82C80059124
:1042600005030705119682E8A1006846FDF722FDC7
:104270006F2026900320CDE927048020CDE92A4035
:104280002994042126A82C94FDF7C0FB43F6045082
:10429000129013A9182081E8A1004FF08850CDE9B1
:1042A00016604FF440301A9068021F9080002190F1
:1042B000C014229080012594CDE9230812A8FDF7AF
:1042C0009CFAFDF793FA2EB0BDE8F0810004005887
:1042D00070B54FF0B0400168214A01F0F00102EBE7
:1042E00091010B68816811F00C021E4907D01E4D28
:1042F000042A06D06E00082A05D00C2A05D00B60CF
:104300001BE00D6019E00E6017E0C26802F00304C4
:10431000C268C2F30212521C022C1BD0032C1CD008
:10432000B3FBF2F2C368C3F306235343C26801240C
:1043300004EB5272B3FBF2F20A608068084A00F0A4
:10434000F000403A02EB90000A680068B2FBF0F01F
:10435000086070BDB5FBF2F2E4E7B6FBF2F2E1E70C
:1043600010780008F40000200024F4001548002113
:10437000016014488030026842F4700202604FF01D
:10438000B040026842F0010202604FF4E022826015
:1043900002680D4B1A400260D0F8942022F005020A
:1043A000C0F89420D0F8982022F00102C0F898209C
:1043B000064AC2600261026822F4802202608161C2
:1043C0007047000008ED00E0FBFEF6FA0010042242
:1043D00010B50448FEF75DF8BDE810400248FEF74E
:1043E00058B80000780E0020B80E002070B50268A2
:1043F000164B4FF08046984201D0B04203D122F0D4
:1044000070044A682243124C124D984205D0B042C3
:1044100003D0A04201D0A84203D122F44076CA685A
:1044200032434E6922F08002324302608A68C262DF
:104430000A688262984203D0A04201D0A84201D10A
:10444000096901630121416170BD0000002C014038
:104450000044014000480140F0B5026A22F0010228
:104460000262056A43688269154C25F00205224004
:104470000C6822F0030214438A68134E2A43114D3C
:10448000124FA84203D0B04201D0B84206D122F068
:10449000080CCA6842EA0C0222F00402A84203D0C7
:1044A000B84201D0B04205D14D6923F440731D4399
:1044B0008B692B4343608461496841630262F0BDAC
:1044C0008FFFFEFF002C01400048014000440140E6
:1044D00030B5026A22F010020262046A42688369FF
:1044E000154D2B400D6823F4407343EA052524F055
:1044F00020038C6843EA0413104CA04207D1CC6817
:1045000023F0800343EA041323F0400305E00C4C3E
:10451000A04202D00B4CA04207D14C6922F4406269
:1045200042EA84028C6942EA8402426085614968F9
:104530008163036230BD0000FF8FFFFE002C01404D
:10454000004401400048014030B5026A22F4807204
:104550000262046A4268C369144D2B400D6823F05F
:1045600003031D4324F400738C6843EA0423104CB6
:10457000A04207D1CC6823F4006343EA042323F468
:10458000806305E00B4CA04202D00B4CA04207D147
:104590004C6922F4405242EA04128C6942EA041245
:1045A0004260C5614968C163036230BD8FFFFEFF91
:1045B000002C0140004401400048014030B5026A2F
:1045C00022F480520262046A4268C3690F4D24F4E7
:1045D00000542B400D6823F4407343EA05238D6893
:1045E00044EA05340A4DA84205D00A4DA84202D03B
:1045F000094DA84204D14D6922F4804242EA851255
:104600004260C36149680164046230BDFF8FFFFEF0
:10461000002C0140004401400048014030B5026ACE
:1046200022F480320262046A4268436D0E4D2B40D0
:104630000D681D4324F400330C8943EA04430B4CFA
:10464000A04205D00A4CA04202D00A4CA04204D19C
:104650004C6922F4803242EA04224260456549688E
:104660008165036230BD00008FFFFEFF002C01401A
:10467000004401400048014030B5026A22F4801233
:104680000262046A4268436D0E4D24F400142B400C
:104690000D6843EA05230D8944EA05540A4DA842F2
:1046A00005D00A4DA84202D0094DA84204D14D6957
:1046B00022F4802242EA8522426043654968C1654E
:1046C000046230BDFF8FFFFE002C0140004401401A
:1046D0000048014010B504460B48FEF7CDFA0B48E0
:1046E0004168A0680860E068C8600748103048600A
:1046F00010388860FEF700F805482168416061685D
:104700008160002010BD0000DC0C0020C8020020E9
:1047100000010020044910B54968012009680872A9
:10472000FDF7F2FF002010BDC8020020FDF7F4BF26
:104730000A480949016020314160103181605039D7
:10474000C1605C310161603941617C3181617039E6
:10475000C161FDF7EBBF000018040020C802002073
:1047600010B501460348FEF796FABDE8104002482E
:10477000FDF7FABF14010020B541000810B504464A
:104780000C48FEF779FA0C48FEF776FA0B480169F7
:10479000094814380160A0688860E068C86005486E
:1047A0000861206808606068486020694861606945
:1047B000886110BD0804002014010020C8020020F8
:1047C00010B504460848FEF757FA0848C168A068C3
:1047D000086005484860FDF7DFFF05482168C160B3
:1047E00061680161002010BDE40C0020C8020020B7
:1047F00000010020044910B5C9681020096808723A
:10480000FDF7D2FF002010BDC802002010B50548FA
:10481000FEF732FA0449034849690860BDE81040D0
:10482000FDF7CEBF10040020C80200207047002012
:1048300002F091BE10B5417A0F290AD00E2908D096
:1048400001460848FEF727FABDE81040054802F087
:1048500097BB01460448FEF71EFABDE81040002051
:1048600002F001BBC00200202001002010B501466B
:104870000348FEF710FABDE81040014802F09EBE62
:10488000040D002010B5D0F8B422526890470020E3
:1048900010BD134610B50A46002100F015FA00209D
:1048A00010BD134610B50A46002100F0A8FA0020FA
:1048B00010BD10B50446802100F086FA2046BDE800
:1048C0001040002100F080BA10B505210023C0F887
:1048D00094121A46194600F0F7F9002010BD10B5E1
:1048E0000223C261C0F89432026213460A460021D4
:1048F00000F085FA002010BD10B504210023C0F897
:1049000094121A46194600F07AFA002010BDF8B544
:1049100004460020ADF8000048880D46010A06292B
:1049200047D006DC01290FD0022912D003294BD130
:104930001DE0072946D00F2946D1D4F8B002C2693C
:1049400020E0694690473BE0D4F8B012207C0A682A
:10495000F7E7207C02260028D4F8B40205D0C16A0B
:1049600068468847014646703BE0816AF8E7C0B276
:10497000062829D2DFE800F003090D111519D4F833
:10498000B002426802B3207CDBE7D4F8B002826850
:10499000F8E7D4F8B002C268F4E7D4F8B0020269CC
:1049A000F0E7D4F8B0024269ECE7D4F8B0028269CB
:1049B000E8E7207C40B9D4F8B402416B68468847E8
:1049C00001460EE0207C20B129462046FFF771FF0A
:1049D000F8BDD4F8B402016B684688470146072049
:1049E0004870BDF8000048B1EA8852B1824200D94F
:1049F0000246ADF800202046FFF771FFE888002846
:104A0000E6D12046FFF778FFF8BD70B500230028F7
:104A10001ED00446002502E06D1CEDB2641C267811
:104A2000002EF9D1022404EB450414801278CA54F4
:104A30005B1C0322CA5400245B1C06E0CA545B1CA6
:104A4000DAB28C54521CD3B2401C0278002AF5D141
:104A500070BD01004FF0000004D0012901D00229EF
:104A600001D0022070470120704710B580B1D0F806
:104A7000B43213B10023C0F8B43209B1C0F8B01297
:104A8000012180F89C12027000F0C8F8002010BDCF
:104A9000022010BD10B5D0F8C002FCF712FCBDE832
:104AA0001040FFF7D6BF10B5D0F8C002FCF7E5FB09
:104AB000BDE81040FFF7CDBF2DE9F0411746044691
:104AC00051B1D4F8B40242691AB194F89C02032897
:104AD00051D00220BDE8F081D4F89432002504F1D1
:104AE0001400022B03D0042B3AD0C3B33CE0D0E92E
:104AF00003639E4207D9F11AC1608AB23946204643
:104B0000FFF7CFFE12E08068B0FBF3F103FB110169
:104B100099B9984211D3D4F8981288420DD2002244
:104B200011462046FFF7BDFEC4F8985200231A46EE
:104B30001946204600F0C8F816E0D4F8B402C1685F
:104B400029B194F89C02032801D12046884780218E
:104B5000204600F039F92046FFF7B6FE04E0FFE7F3
:104B60008021204600F030F994F8A002012804D1F9
:104B700084F8A05201E0204690470020AAE770B5D3
:104B80001546044649B1D4F8B40282691AB194F8C2
:104B90009C02032830D0022070BDD4F8941204F592
:104BA000AA70032902D005291ED027E0D0E90321ED
:104BB0008A420BD9531AC3600846834200D3034686
:104BC0009AB229462046FFF764FE17E0D4F8B402F3
:104BD000016929B194F89C02032801D12046884735
:104BE0002046FFF789FE09E000200146C4F8940240
:104BF000204600F0E9F801E020469047002070BD13
:104C000010B5D0F8C002FCF788FBBDE81040FFF7F4
:104C100020BFD0F8C002FCF782BB000070B51B4C6F
:104C20000546C4F87002C0F8C042FCF7C7FD18483A
:104C30002060082060600220A06020610020606188
:104C4000A061E06120622046FCF7BDFC08B1FBF7E3
:104C500022FD0022D5F8C0021823114605F5307553
:104C6000FCF7E2FA5823002280212868FCF7DCFADE
:104C70009823002281212868FCF7D6FAD823002245
:104C800001212868FCF7D0FA002070BD2C14002008
:104C9000006800400A06D0F8C00201F07F0100EB76
:104CA000411002D590F82A00704790F82A01704709
:104CB00010B51C461346D0F8C0022246FCF736FB5E
:104CC000BDE81040FFF7C5BE10B5D0F8C002FCF734
:104CD0005BFBBDE81040FFF7BCBE70B50022044688
:104CE00040231146FFF7E4FF40260125C4F8646124
:104CF0003346002280212046C4F85851FFF7D8FFE0
:104D00006662A56184F89C520020C4F89402606039
:104D1000C4F8A402D4F8B80228B1D4F8B40200212F
:104D2000426820469047002070BD90F89C120429EC
:104D300003D190F89D1280F89C120020704710B5A6
:104D400090F89C12032904D1D0F8B412C96901B1BA
:104D50008847002010BD01740020704710B5D0F8BE
:104D6000C002FCF7E9FCBDE81040FFF772BE70B569
:104D7000044600F52A70054600F0B7F90120C4F892
:104D80009402B4F8AE02C4F8980294F8A80210F0A5
:104D90001F010AD001290DD0022910D000F0800196
:104DA000204600F011F8002070BD2946204600F092
:104DB0000AFAF8E72946204600F036FBF3E72946D1
:104DC000204600F089FAEEE710B5D0F8C002FCF7F3
:104DD000F2FABDE81040FFF73CBE10B5D0F8C002B3
:104DE000FCF7C5FCBDE81040FFF733BE90F89C12FD
:104DF00080F89D12042180F89C120020704710B5A5
:104E0000D0F8C002FCF70CFBBDE81040FFF721BE54
:104E100010B50A46024903A0FFF7F7FD004810BD90
:104E2000A01600204D534320436F6E666967000053
:104E300010B5FEF71AF8002010BD10B5FEF732F8D5
:104E4000002010BD70B504460121FFF72CFE00259F
:104E500081212046C4F86C51FFF725FE2046E5620B
:104E6000FEF73DF8D4F8B80218B100F004FBC4F81E
:104E7000B852002070BD0000122008800048704722
:104E80006C0000200A21018000487047C801002002
:104E900020210180004870478801002020210180E6
:104EA00000487047680100202021018000487047B9
:104EB000A801002070B50446007C0125D0B1402334
:104EC000022201212046FFF7F3FE4023C4F86C5173
:104ED000022281212046FFF7EBFE4FF41B70E562B2
:104EE00000F0CAFAC4F8B80280B12046FDF7FCFF12
:104EF000002070BD4FF40076334602220121204687
:104F0000FFF7D6FE3346C4F86C51E1E7022070BDCE
:104F100010B50A46024903A0FFF777FD004810BD0F
:104F2000A01600204D534320496E7465726661637C
:104F300065000000042008800048704768000020D9
:104F400010B50A46024903A0FFF75FFD004810BDF7
:104F5000A016002053544D6963726F656C656374CD
:104F6000726F6E696373000010B50A46024903A0B0
:104F7000FFF74BFD004810BDA016002053544D33E1
:104F800032204D6173732053746F72616765000046
:104F900009B1C0F8BC1200207047000010B51A20FB
:104FA00008800A480168001D0468001D0068081890
:104FB00009D008220649FDF763FD05490422103196
:104FC0002046FDF75DFD0248801E10BD9075FF1F55
:104FD000820000202DE9F8430026D0F8B87205467B
:104FE000ADF8006008780C46B04610F0600120D0A3
:104FF00020293DD16178FE2902D0FF2938D10EE069
:10500000618881BBE188012932D1000630D5D5F80D
:10501000BC02806980470122394638601FE0618800
:1050200009BBE188F9B9000622D42846FDF77DFFC7
:1050300023E0607830B1012825D00A2809D00B2858
:1050400016D111E095F89C02032811D1022269467D
:1050500005E095F89C0203280AD10122391D284653
:10506000FFF73DFC09E003E095F89C02032807D018
:1050700021462846FFF71DFC02263046BDE8F8838E
:10508000A0787860F9E721792846FFF7B9FD217902
:105090002846FFF708FDA0884FF00107010600F041
:1050A0000F0000EB80004FF4007305EB80000BD580
:1050B000C0F81880287C00B14023022281212846B4
:1050C000FFF7F6FDEF620BE0C0F85881287C00B1D5
:1050D0004023022201212846FFF7EAFDC5F86C7142
:1050E00021792846FDF7ACFEC7E70A7802704A78B6
:1050F00042708A78CB7802EB032242800A794B799E
:1051000002EB032282808A79C97902EB0121C180F6
:1051100070470246002011B1C2F8B4127047022055
:10512000704710B5D0F8B42202241AB11268904723
:1051300000B90024204610BD70B50E461E4D89787A
:1051400004462970012931D894F89C0202280BD01A
:1051500003280FD031462046FFF7ABFB29782046C5
:10516000BDE87040FFF78EBBD9B10320616084F8C1
:105170009C0209E071B16068884212D0C1B2204639
:10518000FFF780FB297861602046FFF7CAFF0228FD
:105190000CD006E0022084F89C0220466160FFF7F4
:1051A00071FB2046BDE87040FFF7A6BB31462046A4
:1051B000BDE87040FFF77DBB2C01002010B5FFF764
:1051C0000CFE002010BD2DE9F0410A78002612F0F7
:1051D000600208D0202A01D0402A70D1D0F8B42231
:1051E000926890476DE04B78002201250A2B66D229
:1051F000DFE803F0405D6557650805652C29FFF77A
:1052000086FB5EE004468888D8B9C888C8B9488853
:10521000802816D200F07F0794F89C02032810D053
:1052200084F89E7239462046FFF798FD2046FFF726
:1052300063FB1FB1022084F89C0242E084F89C5278
:105240003FE020463BE0FFF777FF3AE0CB88012BB9
:1052500035D190F89C32012B04D0022B02D0032BC5
:105260002DD104E08260012200F1080116E0012244
:10527000011D13E090F89C22012A03D0022A01D0DC
:10528000032A1CD1CA88022A19D1C560D0F8A412F9
:1052900009B10321C160022200F10C01FFF71FFBDD
:1052A0000FE0498801290CD1C0F8A45211E090F810
:1052B0009C32012B08D0022B06D0032B04D0FFF721
:1052C000F8FA3046BDE8F08149880129F9D1C0F8E3
:1052D000A422FFF711FBF4E72DE9F0410A4604464A
:1052E00010780027097910F060030AD0202B01D034
:1052F000402B50D1D4F8B402114683682046984719
:105300008FE0C0F34110012806D05078D0B30128B7
:105310002AD003283FD107E0D4F8B40211468368AD
:105320002046BDE8F041184794F89C02022802D0BC
:10533000032872D10AE071B380296ED02046FFF7AE
:1053400043FD80212046FFF73FFD6AE0508838B9D1
:1053500031B1802904D0D08810B92046FFF734FD40
:105360002046FFF7C9FA5CE094F89C020228E2D0DC
:10537000032852D1508898BB4806F1D02046FFF749
:1053800089FBEDE7FFE794F89C020026022803D092
:10539000032842D112E040E009B180293DD108063E
:1053A00001F07F0000EB800004EB800101D5143197
:1053B00001E001F5AA7102220E602AE0080601F060
:1053C0000F0000EB800004EB80000AD5806920B359
:1053D00001F07F0000EB800004EB800514350BE04A
:1053E0001FE0D0F85801C0B101F07F0000EB800051
:1053F00004EB800505F5AA7541B1802906D0204649
:10540000FFF748FC10B10120286000E02E60022266
:1054100029462046FFF763FA03E011462046FFF7CE
:1054200048FA3846BDE8F08170B5054608780C4664
:1054300010F0600003D0202801D0402816D195F844
:105440009C02012803D0022801D003280ED1207924
:1054500001280BD8D5F8B402826828469047E18825
:10546000014306D12846FFF747FA02E02846FFF736
:1054700020FA002070BD704700487047BC11002022
:105480002DE9F0470C784FF0000C30F8243048F646
:105490008F121340CA78002A7ED0012A7DD0022ABA
:1054A00003D0032A7AD04FF0010C48F28002134354
:1054B00020F824300D7830F8254048F68F731C40D2
:1054C0002C43144320F825400F7B48F6BF744BF65D
:1054D0008F7948F2C0054CF28006EFB391F8008056
:1054E000C24630F8287048F280181F4047EA080783
:1054F00020F82A70B0F8507091F80080074407EB4C
:10550000C807B1F8088028F00108A7F80084B0F8AF
:10551000507091F80080074407EBC807B1F80A8083
:1055200028F00108A7F804844F78002F7ED091F866
:10553000008030F828707F0405D530F828701F40AF
:10554000374320F8287091F8008030F828707F06E3
:1055500007D530F8287000E02FE01F402F4320F8D7
:1055600028700F7830F827501D40354320F8275019
:10557000CB780D78012B30F8253003EA040301D0F5
:1055800083F02003134320F825300B7830F82310E4
:1055900001EA0901114302E006E00BE007E020F810
:1055A00023106046BDE8F08743F400737DE743F4C1
:1055B000C0637AE743F4806377E74F7827B3B0F8A6
:1055C00050600F78064406EBC706CF8827F0010726
:1055D000A6F800740F7830F82760760605D530F805
:1055E00027601E402E4320F82760CB78012B06D081
:1055F0000B7830F82310214081F02001CAE70B78A6
:1056000030F823102140C5E7B0F850400D7804442D
:1056100004EBC504CD8825F00105A4F80454B0F8C6
:1056200050400D78044404EBC50400E02DE00D6902
:1056300004F20644EDB13E2D21D26F08ED0700D0F3
:105640007F1C4FF6FF7505EA872525800D7830F819
:105650002540640405D530F825401C40344320F82B
:1056600025400B7830F8231001EA090181F44051FC
:1056700090E7258825F4F84545F40045E5E76D09F0
:105680004FF4004747EA8525DFE70F7830F8278099
:105690005FEA484807D530F8278008EA030848EA57
:1056A000060820F827800F7830F82760760605D5A1
:1056B00030F827601E402E4320F827600F7830F81E
:1056C00027601E402E4320F827600D7830F82530E3
:1056D00003EA090383F44053134320F825308EE78F
:1056E0002DE9F04391F80C804F780A7848F6BF7C9A
:1056F0004BF68F7948F2800348F2C0054CF28006E1
:1057000048F68F74B8F1000F28D0002F30F82270BF
:105710004FEA474748D0002F05DA30F8227027407B
:10572000374320F822700A7830F822707F0605D5BA
:1057300030F8227027402F4320F822700D7830F87F
:1057400025202240324320F825200C7830F82420F0
:1057500002EA0C021A4320F824201AE07FB130F844
:105760002260760605D530F8226026402E4320F8C8
:1057700022600A7830F8221001EA0C010EE030F8BD
:1057800022506D0405D530F822502540354320F8CD
:1057900022500A7830F8221001EA0901194320F852
:1057A00022100020BDE8F083002F05DA30F82270C7
:1057B0002740374320F822700A7830F822607606B6
:1057C00005D530F8226026402E4320F822600E785E
:1057D00030F8262022402A4320F826200C7830F882
:1057E000242002EA09021A4320F82420C1E730F8F5
:1057F000581F41F4004101800020704700B501218D
:10580000A0F840100021A0F84010A0F84410A0F823
:10581000501000F022F9002000BD30F8401F4BF678
:10582000807291430180002070470020704730B59E
:105830000A7BB2BB4A7848F68F7548F28004C2B141
:105840000B7830F82320520607D530F823202A4061
:1058500048F2C0052A4320F82320CA78012A20D024
:105860000A7830F8221048F6BF73194081F0200101
:1058700014E00A7830F822305B0407D530F8223083
:105880002B404CF280052B4320F822300A7830F868
:1058900022104BF68F73194081F44051214320F8B8
:1058A0002210002030BD10B54A780978002A48F24D
:1058B000800330F8212005D048F6BF74224082F0E2
:1058C000100204E04BF68F74224082F480521A4397
:1058D00020F82120002010BDF0B50E46054691F8B5
:1058E00001C00022097B3469B06948F28007BCF12D
:1058F000010F04D0A0424FD9001BB0614EE0A0427E
:1059000002D9001BB06101E00446B26169B1307890
:1059100035F820104906B5F85010294401EBC000B5
:1059200012D5A0F80644728911E0A3B2F288284685
:10593000716900F0BFF8B5F850003178284400EBE9
:10594000C100A0F802441EE0A0F802443289A3B2CC
:105950002846716900F0AEF8707848F68F7110B182
:10596000012807D00FE0327835F82200084048F2CD
:10597000C00105E0327835F8220008404CF2800181
:10598000084325F82200317835F8210048F6BF7227
:10599000104080F030005BE00446B2614FF6FF72C9
:1059A0004FF4004319B1BCF1000F19D02BE0B5F84A
:1059B00050003178284400EBC10000F206402CB1C1
:1059C0003E2C30D3610943EA812107E0018821F4AC
:1059D000F84141F4004101E002EA812101802FE019
:1059E000B5F850003178284400EBC10000F20240C5
:1059F0007CB13E2C13D261085FEAC47C00D0491C04
:105A000002EA8121018070780028D0D001280FD0CF
:105A100016E0018821F4F84141F40041F2E7610900
:105A200043EA8121EEE76108E307D5D0491CD3E7BB
:105A3000B5F850104819317800EBC100A0F80644C1
:105A4000317835F821004BF68F72104080F44050C9
:105A5000384325F821000020F0BD30F8401F4BF6F8
:105A60008072114301800020704700000148FBF75D
:105A7000ECBC00002C140020B0F84400704710B5B6
:105A800010445C0800F5806008D030F8022B01F863
:105A9000012B120A01F8012B641EF6D1DA0701D09E
:105AA0000088087010BD11B98021A0F84C100020AA
:105AB0007047000010B55B1C10445B0800F5806067
:105AC0000AD000BF11F8012B11F8014B42EA042261
:105AD00020F8022B5B1EF5D110BD00000248012109
